S00B00005554532E737265631D
S1130000C7C20000E6C20000E4C20000E2C2000071
S1130010E0C20000DEC20000DCC20000DAC2000060
S1130020D8C20000D6C20000D4C20000D2C2000070
S1130030D0C20000CEC20000E3C500000EC600001E
S113004039C6000064C600008FC60000BAC60000AE
S1130050E5C6000010C700003BC7000066C70000EB
S1130060B8C20000B6C20000B4C20000B2C20000B0
S1130070B0C20000AEC20000ACC20000AAC20000C0
S1130080A8C20000A6C20000A4C20000A2C20000D0
S1130090A0C200009EC200009CC200000C94CB0DC4
S11300A00C94FD0D0C942F0E0C94610E92C2000062
S11300B090C200008EC200008CC200000C9484091F
S11300C00C94B1090C94DE090C940B0A0C94380AB4
S11300D00C94650A0C94920A0C94BF0A0C94EC0AD2
S11300E00C94190B76C2000074C2000072C20000A6
S11300F070C200006EC200006CC200006AC2000040
S113010068C2000066C2000064C2000062C200004F
S113011060C200005EC200005CC200000C94030DCB
S11301200C94350D0C94670D0C94990D52C200007B
S113013050C2000027C7000052C700007DC700005E
S1130140A8C70000D3C70000FEC700000C94D00865
S11301500C94FD080C942A090C9457093AC2000027
S113016038C2000036C2000034C2000032C20000AF
S113017030C200002EC200002CC200002AC20000BF
S113018028C2000026C2000024C2000022C20000CF
S113019020C200001EC200001CC200001AC20000DF
S11301A018C2000016C2000014C2000012C20000EF
S11301B00C94460B0C94730B0C94A00B0C94CD0B69
S11301C00C94FA0B0C94270C04C2000002C2000029
S11301D000C20000FEC10000FCC10000FAC1000022
S11301E0F8C10000F6C10000F4C10000F2C1000033
S11301F0F0C10000EEC10000ECC100006E616E00B1
S1130200696E660000407A10F35A00A0724E180915
S11302100010A5D4E80000E87648170000E40B5469
S1130220020000CA9A3B000000E1F5050000809638
S11302309800000040420F000000A086010000006A
S1130240102700000000E803000000006400000024
S113025000000A00000000000100000000002C76ED
S1130260D888DC674F0823DFC1DFAE59E1B1B79608
S1130270E5E3E453C63AE651997696E8E6C2842665
S1130280EB898C9B62ED407C6FFCEFBC9C9F40F241
S1130290BAA56FA5F490055A2AF75C936B6CF967BD
S11302A06DC11BFCE0E40D47FEF520E6B500D0ED82
S11302B0902E0300943577050080841E08000020EA
S11302C04E0A000000C80C333333330F986E128388
S11302D01141EF8D2114893BE65516CFFEE6DB185C
S11302E0D1844B381BF77C1D901DA4BBE424203221
S11302F084725E228100C9F124ECA1E53D2700004F
S11303000000000000202020202000205050500039
S11303100000005050F850F850502078A07028F099
S113032020C0C810204098186090A040A890686031
S113033020400000000010204040402010402010C9
S113034010102040005020F8205000002020F820F9
S1130350200000000000602040000000F8000000C1
S113036000000000006060000810204080007088D9
S113037098A8C888702060202020207070880810F9
S11303802040F8F810201008887010305090F810B1
S113039010F880F008088870304080F0888870F881
S11303A00810204040407088887088887070888861
S11303B078081060006060006060000060600060A9
S11303C02040081020402010080000F800F8000029
S11303D08040201020408070880810200020708801
S11303E00868A8A87070888888F88888F08888F0D9
S11303F08888F070888080808870E09088888890F1
S1130400E0F88080F08080F8F88080E08080807060
S1130410888080988870888888F8888888702020E8
S113042020202070381010101090608890A0C0A078
S11304309088808080808080F888D8A88888888880
S11304408888C8A898888870888888888870F08880
S113045088F080808070888888A89068F08888F008
S1130460A09088788080700808F0F8202020202050
S11304702088888888888870888888888850208818
S11304808888A8A8D8888888502050888888885068
S113049020202020F80810204080F8382020202038
S11304A0203800804020100800E02020202020E098
S11304B020508800000000000000000000F84020E8
S11304C01000000000000070087888788080B0C8B0
S11304D08888F00000708080887008086898888890
S11304E07800007088F88070304840E04040400058
S11304F00078887808308080B0C8888888200060B8
S1130500202020701000301010906040404850604F
S11305105048602020202020700000D0A8A888889F
S11305200000B0C88888880000708888887000003F
S1130530F088F08080000068987808080000B0C84F
S1130540808080000070807008F04040E0404048A7
S113055030000088888898680000888888502000C7
S1130560008888A8A850000088502050880000887F
S1130570887808700000F8102040F81020204020EF
S11305802010202020202020204020201020204047
S113059011241FBECFEFCDBFDFE5DEBF00E00CBFEF
S11305A010E2A0E0B0E2EAEFF6E300E00BBF02C025
S11305B007900D92A236B107D9F725E2A2E6B0E280
S11305C001C01D92A83EB207E1F70E94BF130C942C
S11305D07B1B16CD04C06150710981099109611515
S11305E0710581059105B9F70895BF92CF92DF9205
S11305F0EF92FF920F931F93CF93DF931F92CDB788
S1130600DEB700E016E06894FF24F3F8F801F68200
S113061064E070E080E090E0DDDFF801F58264E002
S113062070E080E090E0D6DF0F2EFBE2BF2EF02DCD
S1130630B98280EA99E00E94A910C12CD12C7601DC
S113064000E412E42FE030E043E0BE016F5F7F4F2F
S113065080EA99E00E94D81000E616E0FF24F394A3
S1130660F801F682B982BE016F5F7F4F80EA99E09C
S11306700E94F210F801F682E0EAF9E0818185FF38
S1130680FDCF80EA8093A009E0EAF9E0818186FF4A
S1130690FDCFE0EAF9E080E481838081BE016F5FF1
S11306A07F4F80EA99E00E9408118BE28983BE01A2
S11306B06F5F7F4F80EA99E00E94F21081E080939F
S11306C06606E0EAF9E0818185FFFDCF86EA809342
S11306D0A009E0EAF9E0818186FFFDCFE0EAF9E0D4
S11306E080E481838081BE016F5F7F4F80EA99E05F
S11306F00E9408118BE28983BE016F5F7F4F80EAFD
S113070099E00E94F21081E080936606E0EAF9E045
S1130710818185FFFDCF88EC8093A009E0EAF9E0B0
S1130720818186FFFDCFE0EAF9E080E48183808166
S1130730BE016F5F7F4F80EA99E00E9408118BE24F
S11307408983BE016F5F7F4F80EA99E00E94F210B7
S113075081E080936606E0EAF9E0818185FFFDCFC0
S113076082EA8093A009E0EAF9E0818186FFFDCF67
S1130770E0EAF9E080E481838081BE016F5F7F4F0E
S113078080EA99E00E9408118BE28983BE016F5FC1
S11307907F4F80EA99E00E94F21081E08093660620
S11307A0E0EAF9E0818185FFFDCF8FE28093A00923
S11307B0E0EAF9E0818186FFFDCFE0EAF9E080E438
S11307C081838081BE016F5F7F4F80EA99E00E9440
S11307D008118BE28983BE016F5F7F4F80EA99E045
S11307E00E94F21081E080936606E0EAF9E08181DC
S11307F085FFFDCF88EF8093A009E0EAF9E08181CD
S113080086FFFDCFE0EAF9E080E481838081BE01C8
S11308106F5F7F4F80EA99E00E9408118BE2898321
S1130820BE016F5F7F4F80EA99E00E94F21081E081
S113083080936606E0EAF9E0818185FFFDCF10929E
S1130840A009E0EAF9E0818186FFFDCFE0EAF9E062
S113085080E481838081BE016F5F7F4F80EA99E0ED
S11308600E9408118BE28983BE016F5F7F4F80EA8B
S113087099E00E94F21081E080936606E0EAF9E0D4
S1130880818185FFFDCF81E28093A009E0EAF9E050
S1130890818186FFFDCFE0EAF9E080E481838081F5
S11308A0BE016F5F7F4F80EA99E00E9408118BE2DE
S11308B08983BE016F5F7F4F80EA99E00E94F21046
S11308C081E080936606E0EAF9E0818185FFFDCF4F
S11308D081E88093A009E0EAF9E0818186FFFDCFF9
S11308E0E0EAF9E080E481838081BE016F5F7F4F9D
S11308F080EA99E00E9408118BE28983BE016F5F50
S11309007F4F80EA99E00E94F21081E080936606AE
S1130910E0EAF9E0818185FFFDCF81E28093A009BF
S1130920E0EAF9E0818186FFFDCFE0EAF9E080E4C6
S113093081838081BE016F5F7F4F80EA99E00E94CE
S113094008118BE28983BE016F5F7F4F80EA99E0D3
S11309500E94F21081E080936606E0EAF9E081816A
S113096085FFFDCF8FEA8093A009E0EAF9E0818159
S113097086FFFDCFE0EAF9E080E481838081BE0157
S11309806F5F7F4F80EA99E00E9408110F90DF911A
S1130990CF911F910F91FF90EF90DF90CF90BF9078
S11309A00895FF920F931F93CF93DF931F92CDB7B8
S11309B0DEB7082FF62E142F0E9423110F70006B40
S11309C08BE28983BE016F5F7F4F80EA99E00E94CA
S11309D0F21081E080936606E0EAF9E0918195FFE8
S11309E0FDCF0093A009E0EAF9E0818186FFFDCF05
S11309F0E0EAF9E080E481838081BE016F5F7F4F8C
S1130A0080EA99E00E9408110F2D0F7702950F706C
S1130A1000618BE28983BE016F5F7F4F80EA99E0BA
S1130A200E94F21081E080936606E0EAF9E0818199
S1130A3085FFFDCF0093A009E0EAF9E0818186FFFC
S1130A40FDCFE0EAF9E080E481838081BE016F5F3D
S1130A507F4F80EA99E00E9408110F2D0F708BE2FE
S1130A608983BE016F5F7F4F80EA99E00E94F21094
S1130A7081E080936606E0EAF9E0818185FFFDCF9D
S1130A800093A009E0EAF9E0818186FFFDCFE0EA66
S1130A90F9E080E481838081BE016F5F7F4F80EA4B
S1130AA099E00E9408118BE28983BE016F5F7F4F3A
S1130AB080EA99E00E94F21081E080936506E0EA02
S1130AC0F9E0818185FFFDCF1093A009E0EAF9E008
S1130AD0818186FFFDCFE0EAF9E080E481838081B3
S1130AE081E080936606BE016F5F7F4F80EA99E0E4
S1130AF00E9408110F90DF91CF911F910F91FF90E9
S1130B0008950F931F93CF93DF931F92CDB7DEB752
S1130B1082E690E20E941E1168DD8BE28983BE01A9
S1130B206F5F7F4F80EA99E00E94F21081E080932A
S1130B306606E0EAF9E0818185FFFDCF80E48093D9
S1130B40A009E0EAF9E0818186FFFDCFE0EAF9E05F
S1130B5080E481838081BE016F5F7F4F80EA99E0EA
S1130B600E94081100E00AC040E0612F802F19DFC5
S1130B701F5F1038C9F70F5F043011F010E0F4CF95
S1130B800F90DF91CF911F910F910895FF920F93D2
S1130B901F93CF93DF93882354F1603240F5D42F11
S1130BA0C82FF62EF694F694F69470E088E0F89E3A
S1130BB060197109112481E090E08C0102C0000FDA
S1130BC0111F6A95E2F76C2F8F2D0E943111D130DD
S1130BD021F028F0D23031F006C0802B04C00095FB
S1130BE0802301C08027482F6C2F8F2DDADEDF9100
S1130BF0CF911F910F91FF9008950C943111089596
S1130C001F920F920FB60F9211240BB60F922F93CF
S1130C103F934F935F936F937F938F939F93AF9380
S1130C20BF93EF93FF93E091A822F091A92230970C
S1130C3009F01995FF91EF91BF91AF919F918F9119
S1130C407F916F915F914F913F912F910F900BBEC8
S1130C500F900FBE0F901F9018951F920F920FB612
S1130C600F9211240BB60F922F933F934F935F93E0
S1130C706F937F938F939F93AF93BF93EF93FF9360
S1130C80E091A622F091A722309709F01995FF91DF
S1130C90EF91BF91AF919F918F917F916F915F91F0
S1130CA04F913F912F910F900BBE0F900FBE0F905D
S1130CB01F9018951F920F920FB60F9211240BB626
S1130CC00F922F933F934F935F936F937F938F93E1
S1130CD09F93AF93BF93EF93FF93E091A422F0917E
S1130CE0A522309709F01995FF91EF91BF91AF912B
S1130CF09F918F917F916F915F914F913F912F9130
S1130D000F900BBE0F900FBE0F901F9018951F925F
S1130D100F920FB60F9211240BB60F922F933F939D
S1130D204F935F936F937F938F939F93AF93BF93EF
S1130D30EF93FF93E091A222F091A322309709F060
S1130D401995FF91EF91BF91AF919F918F917F91F1
S1130D506F915F914F913F912F910F900BBE0F9028
S1130D600FBE0F901F9018951F920F920FB60F92FF
S1130D7011240BB60F922F933F934F935F936F936E
S1130D807F938F939F93AF93BF93EF93FF93E091E0
S1130D90A022F091A122309709F01995FF91EF91CB
S1130DA0BF91AF919F918F917F916F915F914F917F
S1130DB03F912F910F900BBE0F900FBE0F901F907D
S1130DC018951F920F920FB60F9211240BB60F9223
S1130DD02F933F934F935F936F937F938F939F933F
S1130DE0AF93BF93EF93FF93E0919E22F0919F22E4
S1130DF0309709F01995FF91EF91BF91AF919F91B1
S1130E008F917F916F915F914F913F912F910F90AF
S1130E100BBE0F900FBE0F901F9018951F920F924C
S1130E200FB60F9211240BB60F922F933F934F934B
S1130E305F936F937F938F939F93AF93BF93EF933E
S1130E40FF93E0919C22F0919D22309709F019952F
S1130E50FF91EF91BF91AF919F918F917F916F918E
S1130E605F914F913F912F910F900BBE0F900FBE4A
S1130E700F901F9018951F920F920FB60F92112486
S1130E800BB60F922F933F934F935F936F937F9380
S1130E908F939F93AF93BF93EF93FF93E0919A2225
S1130EA0F0919B22309709F01995FF91EF91BF9132
S1130EB0AF919F918F917F916F915F914F913F91EE
S1130EC02F910F900BBE0F900FBE0F901F9018958F
S1130ED01F920F920FB60F9211240BB60F922F93FD
S1130EE03F934F935F936F937F938F939F93AF93AE
S1130EF0BF93EF93FF93E0919822F091992230975A
S1130F0009F01995FF91EF91BF91AF919F918F9146
S1130F107F916F915F914F913F912F910F900BBEF5
S1130F200F900FBE0F901F9018951F920F920FB63F
S1130F300F9211240BB60F922F933F934F935F930D
S1130F406F937F938F939F93AF93BF93EF93FF938D
S1130F50E0919622F0919722309709F01995FF912C
S1130F60EF91BF91AF919F918F917F916F915F911D
S1130F704F913F912F910F900BBE0F900FBE0F908A
S1130F801F9018951F920F920FB60F9211240BB653
S1130F900F922F933F934F935F936F937F938F930E
S1130FA09F93AF93BF93EF93FF93E0919422F091BB
S1130FB09522309709F01995FF91EF91BF91AF9168
S1130FC09F918F917F916F915F914F913F912F915D
S1130FD00F900BBE0F900FBE0F901F9018951F928D
S1130FE00F920FB60F9211240BB60F922F933F93CB
S1130FF04F935F936F937F938F939F93AF93BF931D
S1131000EF93FF93E0919222F0919322309709F0AD
S11310101995FF91EF91BF91AF919F918F917F911E
S11310206F915F914F913F912F910F900BBE0F9055
S11310300FBE0F901F9018951F920F920FB60F922C
S113104011240BB60F922F933F934F935F936F939B
S11310507F938F939F93AF93BF93EF93FF93E0910D
S11310609022F0919122309709F01995FF91EF9118
S1131070BF91AF919F918F917F916F915F914F91AC
S11310803F912F910F900BBE0F900FBE0F901F90AA
S113109018951F920F920FB60F9211240BB60F9250
S11310A02F933F934F935F936F937F938F939F936C
S11310B0AF93BF93EF93FF93E0918E22F0918F2231
S11310C0309709F01995FF91EF91BF91AF919F91DE
S11310D08F917F916F915F914F913F912F910F90DD
S11310E00BBE0F900FBE0F901F9018951F920F927A
S11310F00FB60F9211240BB60F922F933F934F9379
S11311005F936F937F938F939F93AF93BF93EF936B
S1131110FF93E0918C22F0918D22309709F019957C
S1131120FF91EF91BF91AF919F918F917F916F91BB
S11311305F914F913F912F910F900BBE0F900FBE77
S11311400F901F9018951F920F920FB60F921124B3
S11311500BB60F922F933F934F935F936F937F93AD
S11311608F939F93AF93BF93EF93FF93E0918A2262
S1131170F0918B22309709F01995FF91EF91BF916F
S1131180AF919F918F917F916F915F914F913F911B
S11311902F910F900BBE0F900FBE0F901F901895BC
S11311A01F920F920FB60F9211240BB60F922F932A
S11311B03F934F935F936F937F938F939F93AF93DB
S11311C0BF93EF93FF93E0918822F09189223097A7
S11311D009F01995FF91EF91BF91AF919F918F9174
S11311E07F916F915F914F913F912F910F900BBE23
S11311F00F900FBE0F901F9018951F920F920FB66D
S11312000F9211240BB60F922F933F934F935F933A
S11312106F937F938F939F93AF93BF93EF93FF93BA
S1131220E0918622F0918722309709F01995FF9179
S1131230EF91BF91AF919F918F917F916F915F914A
S11312404F913F912F910F900BBE0F900FBE0F90B7
S11312501F9018951F920F920FB60F9211240BB680
S11312600F922F933F934F935F936F937F938F933B
S11312709F93AF93BF93EF93FF93E0918422F091F8
S11312808522309709F01995FF91EF91BF91AF91A5
S11312909F918F917F916F915F914F913F912F918A
S11312A00F900BBE0F900FBE0F901F9018951F92BA
S11312B00F920FB60F9211240BB60F922F933F93F8
S11312C04F935F936F937F938F939F93AF93BF934A
S11312D0EF93FF93E0918222F0918322309709F0FB
S11312E01995FF91EF91BF91AF919F918F917F914C
S11312F06F915F914F913F912F910F900BBE0F9083
S11313000FBE0F901F9018951F920F920FB60F9259
S113131011240BB60F922F933F934F935F936F93C8
S11313207F938F939F93AF93BF93EF93FF93E0913A
S11313308022F0918122309709F01995FF91EF9165
S1131340BF91AF919F918F917F916F915F914F91D9
S11313503F912F910F900BBE0F900FBE0F901F90D7
S113136018951F920F920FB60F9211240BB60F927D
S11313702F933F934F935F936F937F938F939F9399
S1131380AF93BF93EF93FF93E0917E22F0917F227E
S1131390309709F01995FF91EF91BF91AF919F910B
S11313A08F917F916F915F914F913F912F910F900A
S11313B00BBE0F900FBE0F901F9018951F920F92A7
S11313C00FB60F9211240BB60F922F933F934F93A6
S11313D05F936F937F938F939F93AF93BF93EF9399
S11313E0FF93E0917C22F0917D22309709F01995CA
S11313F0FF91EF91BF91AF919F918F917F916F91E9
S11314005F914F913F912F910F900BBE0F900FBEA4
S11314100F901F9018951F920F920FB60F921124E0
S11314200BB60F922F933F934F935F936F937F93DA
S11314308F939F93AF93BF93EF93FF93E0917A229F
S1131440F0917B22309709F01995FF91EF91BF91AC
S1131450AF919F918F917F916F915F914F913F9148
S11314602F910F900BBE0F900FBE0F901F901895E9
S11314701F920F920FB60F9211240BB60F922F9357
S11314803F934F935F936F937F938F939F93AF9308
S1131490BF93EF93FF93E0917822F09179223097F4
S11314A009F01995FF91EF91BF91AF919F918F91A1
S11314B07F916F915F914F913F912F910F900BBE50
S11314C00F900FBE0F901F9018951F920F920FB69A
S11314D00F9211240BB60F922F933F934F935F9368
S11314E06F937F938F939F93AF93BF93EF93FF93E8
S11314F0E0917622F0917722309709F01995FF91C7
S1131500EF91BF91AF919F918F917F916F915F9177
S11315104F913F912F910F900BBE0F900FBE0F90E4
S11315201F9018951F920F920FB60F9211240BB6AD
S11315300F922F933F934F935F936F937F938F9368
S11315409F93AF93BF93EF93FF93E0917422F09135
S11315507522309709F01995FF91EF91BF91AF91E2
S11315609F918F917F916F915F914F913F912F91B7
S11315700F900BBE0F900FBE0F901F9018951F92E7
S11315800F920FB60F9211240BB60F922F933F9325
S11315904F935F936F937F938F939F93AF93BF9377
S11315A0EF93FF93E0917222F0917322309709F048
S11315B01995FF91EF91BF91AF919F918F917F9179
S11315C06F915F914F913F912F910F900BBE0F90B0
S11315D00FBE0F901F9018951F920F920FB60F9287
S11315E011240BB60F922F933F934F935F936F93F6
S11315F07F938F939F93AF93BF93EF93FF93E09168
S11316007022F0917122309709F01995FF91EF91B2
S1131610BF91AF919F918F917F916F915F914F9106
S11316203F912F910F900BBE0F900FBE0F901F9004
S113163018951F920F920FB60F9211240BB60F92AA
S11316402F933F934F935F936F937F938F939F93C6
S1131650AF93BF93EF93FF93E0916E22F0916F22CB
S1131660309709F01995FF91EF91BF91AF919F9138
S11316708F917F916F915F914F913F912F910F9037
S11316800BBE0F900FBE0F901F9018951F920F92D4
S11316900FB60F9211240BB60F922F933F934F93D3
S11316A05F936F937F938F939F93AF93BF93EF93C6
S11316B0FF93E0916C22F0916D22309709F0199517
S11316C0FF91EF91BF91AF919F918F917F916F9116
S11316D05F914F913F912F910F900BBE0F900FBED2
S11316E00F901F9018951F920F920FB60F9211240E
S11316F00BB60F922F933F934F935F936F937F9308
S11317008F939F93AF93BF93EF93FF93E0916A22DC
S1131710F0916B22309709F01995FF91EF91BF91E9
S1131720AF919F918F917F916F915F914F913F9175
S11317302F910F900BBE0F900FBE0F901F90189516
S11317401F920F920FB60F9211240BB60F922F9384
S11317503F934F935F936F937F938F939F93AF9335
S1131760BF93EF93FF93E0916822F0916922309741
S113177009F01995FF91EF91BF91AF919F918F91CE
S11317807F916F915F914F913F912F910F900BBE7D
S11317900F900FBE0F901F9018951F920F920FB6C7
S11317A00F9211240BB60F922F933F934F935F9395
S11317B06F937F938F939F93AF93BF93EF93FF9315
S11317C0E0916622F0916722309709F01995FF9114
S11317D0EF91BF91AF919F918F917F916F915F91A5
S11317E04F913F912F910F900BBE0F900FBE0F9012
S11317F01F9018951F920F920FB60F9211240BB6DB
S11318000F922F933F934F935F936F937F938F9395
S11318109F93AF93BF93EF93FF93E0916422F09172
S11318206522309709F01995FF91EF91BF91AF911F
S11318309F918F917F916F915F914F913F912F91E4
S11318400F900BBE0F900FBE0F901F9018951F9214
S11318500F920FB60F9211240BB60F922F933F9352
S11318604F935F936F937F938F939F93AF93BF93A4
S1131870EF93FF93E0916222F0916322309709F095
S11318801995FF91EF91BF91AF919F918F917F91A6
S11318906F915F914F913F912F910F900BBE0F90DD
S11318A00FBE0F901F9018951F93CF93DF931F9235
S11318B01F92CDB7DEB72FB72A83F8941A81282F49
S11318C0392F211588E0380739F461E083E069D5C0
S11318D064E083E066D543C0203488E0380739F4F7
S11318E062E083E05ED564E083E05BD538C0211517
S11318F089E0380739F461E084E053D564E084E09A
S113190050D52DC0203489E0380739F462E084E0F2
S113191048D564E084E045D522C021158AE0380723
S113192039F461E085E03DD564E085E03AD517C03F
S113193020348AE0380739F462E085E032D564E087
S113194085E02FD50CC021153B4039F461E086E0D9
S113195028D564E086E025D502C01FBF10C0809161
S1131960E3258F3F09F4FFCF8FB78983F8949981DA
S1131970E2EEF5E281818F5F81839FBF1FBF0F90ED
S11319800F90DF91CF911F910895811528E0920760
S113199029F46093A8227093A9220895803428E042
S11319A0920729F460939C2270939D2208958115D7
S11319B029E0920729F46093942270939522089564
S11319C0803429E0920729F4609388227093892255
S11319D0089581152AE0920729F460938022709378
S11319E08122089580342AE0920729F460937422B6
S11319F070937522089581159B4021F460936C22A5
S1131A0070936D2208951F920F920FB60F921124B6
S1131A100BB60F922F933F934F935F936F937F93E4
S1131A208F939F93AF93BF93EF93FF9340912402BF
S1131A3050912502E091E025F091E12561E080E0FC
S1131A4092E01995FF91EF91BF91AF919F918F9182
S1131A507F916F915F914F913F912F910F900BBEAA
S1131A600F900FBE0F901F9018951F920F920FB6F4
S1131A700F9211240BB60F922F933F934F935F93C2
S1131A806F937F938F939F93AF93BF93EF93FF9342
S1131A9040912C0250912D02E091E025F091E12536
S1131AA062E080E092E01995FF91EF91BF91AF91D0
S1131AB09F918F917F916F915F914F913F912F9162
S1131AC00F900BBE0F900FBE0F901F9018951F9292
S1131AD00F920FB60F9211240BB60F922F933F93D0
S1131AE04F935F936F937F938F939F93AF93BF9322
S1131AF0EF93FF934091340250913502E091E02539
S1131B00F091E12564E080E092E01995FF91EF9176
S1131B10BF91AF919F918F917F916F915F914F9101
S1131B203F912F910F900BBE0F900FBE0F901F90FF
S1131B3018951F920F920FB60F9211240BB60F92A5
S1131B402F933F934F935F936F937F938F939F93C1
S1131B50AF93BF93EF93FF9340913C0250913D02AA
S1131B60E091E025F091E12568E080E092E01995AC
S1131B70FF91EF91BF91AF919F918F917F916F9161
S1131B805F914F913F912F910F900BBE0F900FBE1D
S1131B900F901F9018951F920F920FB60F92112459
S1131BA00BB60F922F933F934F935F936F937F9353
S1131BB08F939F93AF93BF93EF93FF9340916402EE
S1131BC050916502E091DE25F091DF2561E080E42B
S1131BD092E01995FF91EF91BF91AF919F918F91F1
S1131BE07F916F915F914F913F912F910F900BBE19
S1131BF00F900FBE0F901F9018951F920F920FB663
S1131C000F9211240BB60F922F933F934F935F9330
S1131C106F937F938F939F93AF93BF93EF93FF93B0
S1131C2040916C0250916D02E091DE25F091DF2528
S1131C3062E080E492E01995FF91EF91BF91AF913A
S1131C409F918F917F916F915F914F913F912F91D0
S1131C500F900BBE0F900FBE0F901F9018951F9200
S1131C600F920FB60F9211240BB60F922F933F933E
S1131C704F935F936F937F938F939F93AF93BF9390
S1131C80EF93FF934091740250917502E091DE2529
S1131C90F091DF2564E080E492E01995FF91EF91E3
S1131CA0BF91AF919F918F917F916F915F914F9170
S1131CB03F912F910F900BBE0F900FBE0F901F906E
S1131CC018951F920F920FB60F9211240BB60F9214
S1131CD02F933F934F935F936F937F938F939F9330
S1131CE0AF93BF93EF93FF9340917C0250917D0299
S1131CF0E091DE25F091DF2568E080E492E019951B
S1131D00FF91EF91BF91AF919F918F917F916F91CF
S1131D105F914F913F912F910F900BBE0F900FBE8B
S1131D200F901F901895CF92DF92EF92FF920F932E
S1131D301F93CF93DF93EC01D901C801B695A79502
S1131D4097958795481759076A077B0778F46A01BE
S1131D507B01CC0CDD1CEE1CFF1CC901B801A701E2
S1131D6096010E949B192150310902C020E030E005
S1131D70832F8F708F832E83DF91CF911F910F91CB
S1131D80FF90EF90DF90CF900895DF92EF92FF9253
S1131D900F931F93CF93DF931F92CDB7DEB77C01D0
S1131DA08B01009709F4B2C1803C910521F460E1F4
S1131DB080E0F7D2ABC180E8E81681E0F80621F4B0
S1131DC062E080E0EED2A2C1E114E1E0FE0621F47B
S1131DD061E080E0E6D29AC1F0E8EF16F3E0FF0696
S1131DE021F461E081E0DDD291C130E9E31633E012
S1131DF0F30621F461E082E0D4D288C1E11482E0E8
S1131E00F80621F462E081E0CCD280C1E0E4EE1671
S1131E10E2E0FE0621F462E082E0C3D277C1F0E2A0
S1131E20EF16F3E0FF0621F464E082E0BAD26EC15B
S1131E30E11438E0F30621F461E083E0B2D266C134
S1131E40E11489E0F80621F461E084E0AAD25EC1DD
S1131E50E114EAE0FE0621F461E085E0A2D256C175
S1131E60E114FBE0FF0621F461E086E09AD24EC162
S1131E7030E4E31638E0F30621F462E083E091D223
S1131E8045C180E4E81689E0F80621F462E084E0C4
S1131E9088D23CC1E0E4EE16EAE0FE0621F462E0FA
S1131EA085E07FD233C1F0E9EF16F8E0FF0621F4B4
S1131EB064E083E076D22AC130E9E31639E0F30620
S1131EC021F464E084E06DD221C180E9E8168AE05F
S1131ED0F80621F464E085E064D218C1E0E9EE1666
S1131EE0EBE0FE0621F464E086E05BD20FC1F0EC87
S1131EF0EF16F8E0FF0621F468E083E052D206C151
S1131F0030ECE31639E0F30621F468E084E049D2CA
S1131F10FDC080EAE81688E0F80661F460E183E039
S1131F2040D2E0EAF8E084818F7E8483F801248142
S1131F3022504CC0F0EAEF16F9E0FF0621F460E10C
S1131F4084E02FD2E3C030EAE3163AE0F30621F44A
S1131F5060E185E026D2DAC080EAE8168BE0F80674
S1131F6021F460E186E01DD2D1C0E0EBEE16E8E09A
S1131F70FE0621F460E283E014D2C8C0F0EBEF1651
S1131F80F9E0FF0621F460E284E00BD2BFC030E840
S1131F90E31634E0F30621F460E483E002D2B6C031
S1131FA080EAE81684E0F80621F460E485E0F9D1DB
S1131FB0ADC0F70184818F7E8483FB01248122508C
S1131FC0C701F0EAEF16F8E0FF0649F480914E06E7
S1131FD084FDA5C00F2EF1E1DF2EF02DA4C0803BBF
S1131FE038E0930791F0803AE9E09E0749F4309194
S1131FF06E0634FD9BC00F2EF9E1DF2EF02D16C0C6
S1132000803BF9E09F07F1F004C00F2EF5E1DF2ECD
S1132010F02D803A3AE0930749F480918E0684FDCE
S11320208AC00F2EF1E2DF2EF02D15C0803A9B40BE
S113203091F48091AE0684FD0AC00F2EF9E2DF2EE2
S1132040F02D09C00F2EFDE1DF2EF02D04C00F2E60
S1132050FDE2DF2EF02DED2DE695E695E69530E2D6
S1132060E39FF0011124FA5F3D2D377081E090E089
S1132070032E02C0880F991F0A94E2F7818322304D
S113208010F040E001C040E4DF015096A30FB11D01
S11320909FB79983F89439812C9127702C939C9144
S11320A0942B9C933FBF8583F7018581806C858346
S11320B0F80184818D7F813029F4F7018581826064
S11320C0858304C0F70185818D7F8583F80185812F
S11320D0882329F0F70185818460858304C0F70192
S11320E085818B7F8583F801408151816281738171
S11320F000E814E82EE130E0C70115DEF701848121
S1132100886084838481806184831AC0F701848118
S11321108F7E8483F80124812250C70160CF0F2E63
S1132120F5E1DF2EF02D80EA98E06ACF0F2EFDE175
S1132130DF2EF02D7BCF0F2EF5E2DF2EF02D8BCF8F
S11321400F90DF91CF911F910F91FF90EF90DF904F
S11321500895803A28E0920721F460E183E021C1E8
S11321600895803B28E0920721F460E283E019C1DE
S11321700895803A29E0920721F460E184E011C1D6
S11321800895803B29E0920721F460E284E009C1CC
S11321900895803A2AE0920721F460E185E001C1C4
S11321A00895803A9B4019F460E186E0FAC00895EE
S11321B00F931F93CF93DF9300D000D0CDB7DEB73A
S11321C009831A832B833C834D831E82BE016F5F78
S11321D07F4FDBDD2696CDBFDEBFDF91CF911F9110
S11321E00F910895FB018081E82FE695E695E69529
S11321F040E2E49FF0011124FA5F877021E030E0AF
S1132200A90102C0440F551F8A95E2F74683089539
S1132210FB018081E82FE695E695E69540E2E49F90
S1132220F0011124FA5F877021E030E0A90102C0B7
S1132230440F551F8A95E2F7458308958093AA2297
S11322409093AB2208952091AA223091AB2290E87A
S1132250899F200D311D1124F901E60FF11D4083E2
S113226008952091AA223091AB2290E8899F200DF5
S1132270311D1124F901E60FF11D80810895FF92AB
S11322800F931F93CF93DF93E42FF0E0E80FF11D3A
S1132290E138F1051CF0C0E84C2F481B442309F435
S11322A050C0D62FD695D695D69570E098E0D99F94
S11322B0601971091124E1E0F0E0DF0102C0AA0F06
S11322C0BB1F6A95E2F7FA2E213021F0A8F02230E4
S11322D039F137C0C42F1FEF180F012F0C0F602FD7
S11322E08D2F0E94FD054F2D482B602F8D2F0E94AE
S11322F0D104C15091F725C0C42F1FEF180FFA2E37
S1132300F094012F0C0F602F8D2F0E94FD054F2D8F
S11323104823602F8D2F0E94D104C15091F711C022
S1132320C42F1FEF180F012F0C0F602F8D2F0E9449
S1132330FD054F2D4827602F8D2F0E94D104C150D9
S113234091F7DF91CF911F910F91FF900895FF9224
S11323500F931F93CF93DF93222369F0F42E182F4A
S1132360C22FDFEFD60F6D2F6C0F202F4F2D812F33
S113237086DFC150C1F7DF91CF911F910F91FF907C
S113238008958FEF809370008093710080937200A2
S1132390809373008093740080937500809376001B
S11323A00895CF93DF931F92CDB7DEB79FB799837C
S11323B0F8949981E82FF0E0E059FF4F609580810F
S11323C0682360839FBF0F90DF91CF910895AF92F0
S11323D0BF92CF92DF92EF92FF920F931F93CF930E
S11323E0DF93C82FE62EB42E690100E0F9012481A1
S11323F043816B2D8E2DABDFF601808181113AC0B4
S11324008381282F269526952695877009F02F5FBE
S1132410F601A4808C2F90E03581831B91092A9DBD
S113242090011124829FA001839F500D929F500D13
S1132430112401811281040F151FF601F380FF207E
S1132440A9F0D0E0C0E08E2D8C0F9C2F977021F462
S1132450F801D4910F5F1F4FDD2324F441E06B2D6D
S11324600E94C605DD0FCF5FFC12EDCFB394AA9492
S1132470A110E3CFDF91CF911F910F91FF90EF90C7
S1132480DF90CF90BF90AF900895DF92EF92FF92CC
S11324900F931F93CF93DF93D62E042F7901EC0172
S11324A0162F89918A3031F4F70184818F5F080FE8
S11324B01D2D09C08D3039F09701402F612F87DF22
S11324C0F7018381180F88818111EBCFDF91CF91C0
S11324D01F910F91FF90EF90DF900895CF93DF93BA
S11324E0FC0120E030E0C62FD0E0DE01022E02C065
S11324F0B595A7950A94E2F7A0FD508B2F5F3F4F47
S113250031962830310589F740FF0AC041FF03C0E6
S1132510FC01658302C0FC016683FC01618302C087
S1132520FC016283DF91CF91089543E050E061E0C4
S113253080EE97E0D3DF43E050E062E080EE97E086
S1132540CDDF43E050E060E180E696E0C7DF41E0A4
S113255050E460E280E696E0C1DF40E05BE160E2E7
S113256080E896E0BBDF40E05BE162E080EA96E071
S1132570B5DF40E05BE164E080EA96E0AFDF43E092
S113258050E062E080E696E0A9DF43E050E068E0D6
S113259080E696E0A3DF43E050E068E080EA96E05E
S11325A09DDF43E050E061E080E696E097DF43E0A2
S11325B050E068E080E096E091DF41E050E060E1C7
S11325C080E896E08BDF43E050E062E080E696E04E
S11325D085DF43E050E068E080E696E07FDF40E09E
S11325E050E064E080E696E079DF43E050E060E1AB
S11325F080EA96E073DF40E050E061E080E096E03E
S11326006DDF40E050E064E080E096E067DF40E0AA
S113261050E062E080E296E061DF43E050E068E091
S113262080E496E05BDF40E050E064E080E496E024
S113263055DF43E050E068E080E696E04FDF40E09D
S113264050E064E080E696E049DF43E050E068E073
S113265080E896E043DF40E050E064E080E896E004
S11326603DCF089504C06150710981099109611534
S1132670710581059105B9F708958091DC25909144
S1132680DD2501968093DC259093DD25089580E077
S113269098E00AD96DE373E180E098E076D9E0E050
S11326A0F8E08181887F81838AE390E086A397A301
S11326B086818C7F86838681836086838081807F08
S11326C0816080830895CF93DF93C0E8D6E08FE7DD
S11326D088831C828C836BE07BE882E090E0C2DF1D
S11326E01C82DF91CF9108951F93CF93DF93C0E6AF
S11326F0D6E010E11F83E7DF1F83DF91CF911F91A5
S11327000895CF93DF93C0E2D6E08FEF88831C82D5
S11327108C8362E070E080E090E0A4DF1C82188289
S11327206BEF70E080E090E09DDFDF91CF91089542
S1132730CF93DF93C0E4D6E08FEF88831C828C8331
S113274062E070E080E090E08DDF1C8218826BEF25
S113275070E080E090E086DFDF91CF910895789477
S1132760E0E2F6E0808580FDFDCFF894089578944A
S1132770E0E4F6E0808580FDFDCFF8940895D5DE91
S113278000DE87E08093A2000E94810580E18093AF
S1132790850664E080E005DEE0E2F4E0818180FD0E
S11327A0FDCF66E176E185E090E05CDF70DF812CAF
S11327B06894992493F80F2EF9E0AF2EF0E2BF2E1F
S11327C0F02D0F2EF8EC3F2EF02D0F2EF4E0EF2E0F
S11327D0F5E2FF2EF02D44244394512C0F2EFFE1FB
S11327E0CF2EF0E2DF2EF02D0CE314E20F2EF1E3F6
S11327F06F2EF0E27F2EF02DC4E7D3E282DFF401E6
S113280010A211A21092DC251092DD25A8DF809180
S1132810DC259091DD258093DA259093DB2588DFF4
S1132820F40110A211A21092DC251092DD259FDF85
S11328308091DC259091DD258093D8259093D9252E
S11328409F938F938091DB258F938091DA258F93CB
S1132850BF92AF921F923F92FF92EF92B8D620E0C0
S113286030E240E060E0C70110DE809107209091E3
S113287008202DB73EB7265F3F4F2DBF3EBF2091A6
S1132880DA253091DB252817390741F02091D2252C
S11328903091D3252093D6253093D7252091D82560
S11328A03091D9258217930741F08091D2259091D8
S11328B0D3258093D4259093D5258091D6259091C6
S11328C0D7250097B1F16091D4257091D525611574
S11328D0710579F1681B790B072E000C880B990B95
S11328E0F3D09B01AC016AE979E989E19FE382D0E5
S11328F06093CE257093CF258093D0259093D125D6
S11329002DEC3CEC4CE45EE36BD1181634F44092AD
S1132910CC255092CD25E8DE04C01092CC2510922F
S1132920CD251092D6251092D7251092D425109239
S1132930D5258091D5258F938091D4258F9380912F
S1132940D7258F938091D6258F93DF92CF921F92B4
S11329503F921F930F933BD620E030E248E060E0C3
S1132960C80193DD8091D1258F938091D0258F93D9
S11329708091CF258F938091CE258F937F926F92F4
S11329801F923F92DF93CF9322D620E030E240E1C2
S113299060E0CE017ADDEDB7FEB77496EDBFFEBF01
S11329A08091CC259091CD25892B51F081E1E3E4F0
S11329B0F0E2ACEAB2E201900D928A95E1F709C027
S11329C08EE0E4E5F0E2ACEAB2E201900D928A9581
S11329D0E1F720E030E248E160E08CEA92E255DD84
S11329E08091D2259091D32501968093D2259093FE
S11329F0D32504CF0CD0BAC0B2D040F0A9D030F067
S1132A0021F45F3F19F09BC05111E4C09EC0BFD0B8
S1132A1098F39923C9F35523B1F3951B550BBB27A1
S1132A20AA2762177307840738F09F5F5F4F220F4E
S1132A30331F441FAA1FA9F333D00E2E3AF0E0E847
S1132A4030D091505040E695001CCAF729D0FE2F93
S1132A5027D0660F771F881FBB1F26173707480725
S1132A60AB07B0E809F0BB0B802DBF01FF279358DB
S1132A705F4F2AF09E3F510568F061C0ABC05F3FD5
S1132A80ECF3983EDCF3869577956795B795F795C3
S1132A909F5FC9F7880F911D9695879597F90895BB
S1132AA0E1E0660F771F881FBB1F62177307840757
S1132AB0BA0720F0621B730B840BBA0BEE1F88F766
S1132AC0E0950895E89409C097FB3EF490958095AD
S1132AD0709561957F4F8F4F9F4F9923A9F0F92FE0
S1132AE096E9BB279395F695879577956795B7955E
S1132AF0F111F8CFFAF4BB0F11F460FF1BC06F5F44
S1132B007F4F8F4F9F4F16C0882311F096E911C055
S1132B10772321F09EE8872F762F05C0662371F076
S1132B2096E8862F70E060E02AF09A95660F771F8A
S1132B30881FDAF7880F9695879597F9089597F97E
S1132B409F6780E870E060E008959FEF80EC08954F
S1132B5000240A9416161706180609060895002478
S1132B600A9412161306140605060895092E0394F2
S1132B70000C11F4882352F0BB0F40F4BF2B11F466
S1132B8060FF04C06F5F7F4F8F4F9F4F089557FDC5
S1132B909058440F551F59F05F3F71F04795880FC7
S1132BA097FB991F61F09F3F79F08795089512165E
S1132BB013061406551FF2CF4695F1DF08C016160A
S1132BC017061806991FF1CF8695710561050894BB
S1132BD00895E894BB2766277727CB0197F90895D2
S1132BE003D008F48FEF0895990F0008550FAA0B2E
S1132BF0E0E8FEEF16161706E807F907C0F012160C
S1132C001306E407F50798F0621B730B840B950B0E
S1132C1039F40A2661F0232B242B252B21F4089563
S1132C200A2609F4A140A6958FEF811D811D089500
S1132C302F923F924F925F926F927F928F929F92C8
S1132C40AF92BF92CF92DF92EF92FF920F931F93B6
S1132C50CF93DF93CDB7DEB76097CDBFDEBF7C01E6
S1132C601B016A01FC0116821782838181FF2AC33A
S1132C709E012F5F3F4F3901F7019381F10193FDCD
S1132C80859193FF81911F01882309F417C385322D
S1132C9039F493FD859193FF81911F01853231F4BD
S1132CA0B70190E058D456016501E6CF10E0512CED
S1132CB0912CFFE1F915D8F08B3279F038F4803299
S1132CC079F08332A1F4F92DF0612EC08D3261F0D8
S1132CD0803369F4292D21602DC0392D3260932E63
S1132CE0892D8460982E2AC0E92DE86015C097FCD0
S1132CF02DC020ED280F2A3088F496FE06C03AE055
S1132D00139F200D1124122F19C08AE0589E200D04
S1132D101124522EE92DE0629E2E10C08E3231F421
S1132D2096FCCCC2F92DF0649F2E08C08C3621F499
S1132D30292D2068922E02C0883641F4F10193FDBA
S1132D40859193FF81911F018111B3CF9BEB980F64
S1132D50933020F4992D9061805E07C09BE9980F11
S1132D60933008F059C1992D9F7E96FF16E09F730A
S1132D70992E853619F49064992E08C0863621F46C
S1132D80392F3068932E02C01111115097FE07C0DD
S1132D901C3350F444244394410E27E00BC01830F4
S1132DA038F027E017E005C027E09CE3492E02C075
S1132DB0212F412C560184E0A80EB11CF60160813C
S1132DC0718182819381042DA301D7D26C01F98191
S1132DD0FC87F0FF02C0F3FF06C091FC06C092FE20
S1132DE006C000E205C00DE203C00BE201C000E032
S1132DF08C858C7019F0011143C280C297FE10C0FB
S1132E004C0CFC85F4FF04C08A81813309F44A9494
S1132E10141474F528E0241578F588E0482E2CC0A5
S1132E2096FC2AC0812F90E08C159D059CF03CEF08
S1132E30C3163FEFD30674F0892D8068982E0AC01C
S1132E40E2E0F0E0EC0FFD1FE10FF11D8081803323
S1132E5019F411501111F4CF97FE0EC04424439479
S1132E60410E812F90E0C816D9062CF41C1904C019
S1132E704424439401C010E097FE06C01C141D04B2
S1132E8034F4C601019605C085E090E002C081E0FB
S1132E9090E001110196112331F0212F30E02F5FD2
S1132EA03F4F820F931F252D30E08217930714F4B0
S1132EB0581A01C0512C892D897041F4552031F0E4
S1132EC0B70180E290E047D35A94F8CF002321F071
S1132ED0B701802F90E03FD393FC08C0552031F018
S1132EE0B70180E390E037D35A94F8CF97FE4AC0F5
S1132EF04601D7FE02C0812C912CC601881999097C
S1132F00F301E80FF91FED87FE87960124193109B3
S1132F102F87388B012F10E01195019511093FEF90
S1132F208316930621F4B7018EE290E014D3C814FB
S1132F30D9044CF08F8598898815990524F4ED857A
S1132F40FE85818101C080E3F1E08F1A91082D850F
S1132F503E852F5F3F4F2D873E878016910624F0D4
S1132F60B70190E0F8D2DBCFC814D90441F49A81B8
S1132F70963320F4953319F43C8534FF81E3B7018B
S1132F8090E048C08A81813319F09C859F7E9C879C
S1132F90B70190E0E0D2111105C094FC16C085E69B
S1132FA090E015C0B7018EE290E0D5D21E5F82E0BA
S1132FB001E0080FF301E80FF11D8081B70190E0F3
S1132FC0CAD2802F0113F4CFE8CF85E490E0B70193
S1132FD0C2D2D7FC06C0C114D10441F4EC85E4FF8D
S1132FE005C0D194C194D1088DE201C08BE2B70130
S1132FF090E0B1D280E32AE0C216D1042CF08F5FB6
S1133000FAE0CF1AD108F7CFB70190E0A4D2B70104
S1133010C601C096A0D249C1833631F0833779F016
S1133020833509F052C01FC0560132E0A30EB11C13
S1133030F6018081898301E010E0630111C056012B
S1133040F2E0AF0EB11CF601C080D18096FE03C041
S1133050612F70E002C06FEF7FEFC60171D28C0167
S1133060F92DFF7713C0560122E0A20EB11CF60120
S1133070C080D18096FE03C0612F70E002C06FEF64
S11330807FEFC60152D28C01F92DF0689F2EF3FD1B
S113309018C0852D90E00817190798F4B70180E24D
S11330A090E059D25A94F5CFF60197FC859197FE9A
S11330B081916F01B70190E04ED251105A940150A2
S11330C011090115110581F7F0C0843611F0893614
S11330D059F5560197FE09C024E0A20EB11CF60171
S11330E060817181828193810AC0F2E0AF0EB11CCC
S11330F0F60160817181072E000C880B990BF92D64
S1133100FF769F2E97FF09C09095809570956195E5
S11331107F4F8F4F9F4FF0689F2E2AE030E0A3012E
S11331208CD2C82EC6183EC0092D853721F40F7ED7
S11331302AE030E01DC0097F8F3691F018F48835FD
S113314059F0BCC0803719F0883711F0B7C000615E
S113315004FF09C0046007C094FE08C0066006C0EE
S113316028E030E005C020E130E002C020E132E098
S1133170560107FF09C084E0A80EB11CF601608166
S113318071818281938108C0F2E0AF0EB11CF60117
S11331906081718180E090E0A3014FD2C82EC618EF
S11331A00F77902E96FE0BC0092D0E7FC11650F49A
S11331B094FE0AC092FC08C0092D0E7E05C0DC2CCA
S11331C0092D03C0DC2C01C0D12E04FF0DC0FE016B
S11331D0EC0DF11D8081803311F4097E09C002FFDA
S11331E006C0D394D39404C0802F867809F0D39476
S11331F003FD10C000FF06C01C2DD51478F4150D76
S11332001D190CC0D51450F4B70180E290E0A3D18D
S1133210D394F8CFD51410F45D1801C0512C04FFD9
S11332200FC0B70180E390E096D102FF16C001FD04
S113323003C088E790E002C088E590E0B7010CC0C5
S1133240802F867851F001FF02C08BE201C080E23A
S113325007FD8DE2B70190E07ED1C11630F4B701CD
S113326080E390E078D11150F8CFCA94F301EC0DCB
S1133270F11D8081B70190E06ED1C110F6CF15C069
S1133280F4E0F51550F584E0581A93FE1EC00111C0
S113329025C02C8523FF27C00CEF11E0392D307198
S11332A0932EF8018491811121C0552009F4FCCC9E
S11332B0B70180E290E04FD15A94F7CFF7018681AD
S11332C0978123C08FEF9FEF20C0B70180E290E089
S11332D042D15A945110F9CFDACF512CB701802F33
S11332E090E039D1D6CF00E012E0D8CF91108052CF
S11332F0B70190E030D10F5F1F4FD3CF23E02515E6
S113330010F483E0C1CF512CC4CF6096CDBFDEBF93
S1133310DF91CF911F910F91FF90EF90DF90CF90AD
S1133320BF90AF909F908F907F906F905F904F90E1
S11333303F902F900895A1E21A2EAA1BBB1BFD01FA
S11333400DC0AA1FBB1FEE1FFF1FA217B307E40780
S1133350F50720F0A21BB30BE40BF50B661F771FD8
S1133360881F991F1A9469F76095709580959095B8
S11333709B01AC01BD01CF010895283008F027E07E
S11333803327DA01990F311D87FD9160009661059D
S1133390710539F432602E5F3D9330E32A95E1F7ED
S11333A008959F3F30F080387105610509F03C5F56
S11333B03C5F3D93913008F08068911DDF93CF937B
S11333C01F930F93FF92EF92192F987F9695E92FF1
S11333D096959695E90FFF27E25AFD4F99273327D3
S11333E0EE24FF24A701E70105900894079428F42C
S11333F0360FE71EF81E491F511D660F771F881FE1
S1133400991F0694A1F70590079428F4E70EF81E77
S1133410491F561FC11D770F881F991F661F0694E9
S1133420A1F70590079428F4F80E491F561FC71FEB
S1133430D11D880F991F661F771F0694A1F7059069
S1133440079420F4490F561FC71FD81F990F661FF2
S1133450771F881F0694A9F784911095177041F07F
S1133460D695C79557954795F794E7941A95C1F75C
S1133470E4E0F2E068941590159135916591959189
S113348005907FE27395E118F10A430B560BC90BC3
S1133490D009C0F7E10CF11E431F561FC91FD01DF0
S11334A07EF4703311F48A95E6CFE894015030F03D
S11334B0080F0AF40027021708F4202F2395022F7F
S11334C07A3328F079E37D932A95E9F710C07D9348
S11334D02A9589F6069497956795379517951794C5
S11334E0E118F10A430B560BC90BD00998F0239548
S11334F07E9173957A3308F070E37C932013B8F7C8
S11335007E9170617D9330F0839571E37D9370E3D8
S11335102A95E1F71124EF90FF900F911F91CF911D
S1133520DF91992787FD90950895FC0105906150DE
S113353070400110D8F7809590958E0F9F1F0895C5
S1133540FC016150704001900110D8F7809590956E
S11335508E0F9F1F08950F931F93CF93DF93FB014B
S1133560238121FD03C08FEF9FEF2CC022FF16C0E3
S113357046815781248135814217530744F4A08141
S1133580B1819D012F5F3F4F208331838C9326812E
S113359037812F5F3F4F2683378314C08B01EC01A3
S11335A0FB010084F185E02D1995892BE1F6D80102
S11335B016968D919C911797019616968D939C93D0
S11335C01797CE01DF91CF911F910F9108950F931B
S11335D01F93CF93DF93CDB7DEB72E97CDBFDEBF5A
S11335E00E891F89888D998D26E02C8309831A837F
S11335F097FF02C080E090E801978D839E83AE011F
S1133600445E5F4F6A8D7B8DCE01019611DB4D8147
S11336105E8157FD0AC02F813885421753070CF489
S11336209A01F801E20FF31F10822E96CDBFDEBF80
S1133630DF91CF911F910F910895FA01AA272830A5
S113364051F1203181F1E8946F936E7F6E5F7F4F6B
S11336508F4F9F4FAF4FB1E03ED0B4E03CD0670FE7
S1133660781F891F9A1FA11D680F791F8A1F911D3A
S1133670A11D6A0F711D811D911DA11D20D009F48A
S113368068943F912AE0269F11243019305D3193CC
S1133690DEF6CF010895462F4770405D4193B3E0B5
S11336A00FD0C9F7F6CF462F4F70405D4A3318F05C
S11336B0495D31FD4052419302D0A9F7EACFB4E00D
S11336C0A6959795879577956795BA95C9F70097C5
S11336D06105710508959B01AC010A2E0694579566
S11336E0479537952795BA95C9F7620F731F841FBD
S10D36F0951FA01D0895F894FFCF64
S11336FA00FE020607207D0D0050616E6A616E6746
S113370A3A20256420636D2020256420636D0054CB
S113371A696D65723A20256420732020256420731C
S113372A0053706565643A20252E3266206D2F7326
S113373A2020005374617475733A205761726E695C
S113374A6E6720005374617475733A205361666519
S105375A200049
S9030000FC
